:020000040000FA
:1000000080314328080008007E1480314E01161EFE
:100010000A280B2813280C1E0E280F2813289231AB
:100020003C22803141280B1F1628172841281A1C12
:100030001A281B282328101C1E281F28232891312A
:10004000062180314128991F2628272832288F1F12
:100050002A282B28322842014E088A004D080A001F
:1000600080314128191F3528362841280F1F39288B
:100070003A284128420150088A004F080A0080317E
:1000800041287E1009008031452841018831002037
:100090008031E600883101208031E700883102207C
:1000A0008031E8000F30840026308500E130FE000A
:1000B0000130FF0090312C208031F701F801F90167
:1000C0004001DD01DE01A0308400003085002A30CF
:1000D000FE000030FF0090312C2080312030840061
:1000E000013085002530FE000030FF0090312C20CB
:1000F0008031A0308400013085003930FE000030AE
:10010000FF0090312C2080312030840002308500A7
:100110002030FE000030FF0090312C2080317E1016
:1001200040018031932892315D2280314001991441
:10013000941552304001D7002B30D6000030890B87
:100140009F28D60B9F28D70B9F280000A330F400D0
:100150000830F5009F31B82780312030F40014308A
:10016000F5009F31D62780310230F4000030F500D1
:100170009F31D0278031C930F4001330F5009F3112
:10018000CA2780317D30F4001F30F5009F31C4272D
:1001900080319A30F4001F30F5009F31DC27803128
:1001A00000304101D5007030D6000030F4007030CE
:1001B000F5009031202080314001D60056084101E1
:1001C000DD00FB305D02031CE628E728ED28FA304D
:1001D0004001D60056084101DD000130D50700304E
:1001E000D63DD10113295608F5005508F400903189
:1001F000202080314001D600410151080F3E4001CE
:10020000D700D8012630D83D570886005808870007
:10021000560881000130D60056084101D10701304F
:10022000D5070030D63D5D085102031C1829192955
:10023000F3280F304001A8002630A90041015D08D5
:100240004001D600D7015608AA005708AB000F306E
:10025000AC002730AD009631CA2680314001290814
:100260004101A100400128084101A0000F304001D8
:10027000A8002730A900410121084001AB0041013D
:1002800020084001AA00C030D6005608AC008C31CE
:10029000242480319F31F727803190310320803131
:1002A00005304001D7000F30D600F130890B5629B8
:1002B000D60B5629D70B56294101AC01AD01AA0135
:1002C000AB010130A4000030A5000130A2000030D5
:1002D000A3009F31952780310030903190208031EC
:1002E0008B170B174101C7014001991041014708C5
:1002F00003197B297C297629C70191318521803119
:10030000410146080319852986298029C601003044
:100310004001A0009830A1001030D6005608A2007D
:100320009231C82280314101450803199829992941
:100330009329C50190319F2080314101460803195E
:10034000A229A3299D29C60191311D218031903018
:100350004001D0000130D100943177248031410137
:10036000440840060319B529B629C42944084001A8
:10037000D60056084101C00090304001D000013045
:10038000D100943177248031410143080319C929F0
:10039000CA295B2BC3010F3086002630870002304C
:1003A0000106031DD429D529532A0030D700703007
:1003B000D8005808F5005708F4002E08FF3E400109
:1003C000D6005608F6009131BC2180310130410140
:1003D000D7070030D83DD201D20A0B2A4101580874
:1003E000F5005708F40052080F3E860087012630BA
:1003F000873D01084001D6005608F6009131BC2126
:10040000803101304001D60056084101D207013049
:10041000D7070030D83D52084001D600D70141012E
:100420002F0840015702031D192A41012E084001DF
:100430005602031C1C2A1D2AEE298731C827803149
:1004400010304001A8002630A90041012E08FF3ECF
:100450004001AA00FF3041012F3D4001AB000F30A9
:10046000AC002730AD009631CA2680314001290802
:100470004101A100400128084101A0000F304001C6
:10048000A8002730A900410121084001AB0041012B
:1004900020084001AA00C030D6005608AC008C31BC
:1004A000242480315B2B0F30860026308700010327
:1004B000031D5B2A5C2A112B0030D9007030DA0052
:1004C0005A08F5005908F40090312020803140018D
:1004D000D60056084101E100FB306102031C712A7D
:1004E000722A782AFA304001D60056084101E1000C
:1004F0000F308600263087000130C03F1030860064
:1005000026308700023081001130860026308700B7
:10051000033081006108013E4001D60012308600A0
:100520002630870056088100133086002630870069
:100530000430810001304101D9070030DA3DD30198
:10054000C82A5A08F5005908F4009031202080315B
:100550004001D600410153084001D700D8011430B2
:10056000D9002630DA0057085907DB0058085A3DF1
:10057000DC005B0886005C088700560881000130BB
:10058000D60056084101D3070130D9070030DA3DC3
:1005900061085302031CCD2ACE2AA12ACE01D40120
:1005A000FC2A410154080F3E860087012630873D12
:1005B000010888310320803101304001D6005608FF
:1005C0004101CE0796304E02031CE72AE82AF22AA0
:1005D000CE0168304001D600E430890BED2AD60BFD
:1005E000ED2A000001304001D60056084101D40731
:1005F0000130D9070030DA3D6108053E4001D600E0
:10060000003003180130D7005708803A803C031DA2
:100610000C2B560841015402031C0F2B102BD12A1E
:100620005B2B0F3086002630870003300106031D48
:100630001A2B1B2B5B2BC8304001D0000030D1009F
:100640009431772480310F30860026308700413185
:1006500001084001D600D70156084101CF004001F2
:1006600057084101D0004108031D372B382B432B7D
:1006700050084001B10041014F084001B0009631DF
:10068000592680315B2B053042020318482B492B39
:100690005B2B4F084001D60041014208403E8600D6
:1006A000013087004001560881000130D60056080D
:1006B0004101C2075B2B4101240825040319612B6A
:1006C000622BC22B220823040319672B682BC22B31
:1006D000410803196C2B6D2BC22B9F319027803161
:1006E0000D304001D7002D30D600D730890B762B46
:1006F000D60B762BD70B762B00329F319527803186
:100700004101C10142080319862B872BC22B4201EC
:1007100040084001D600D7015608B0005708B10084
:1007200096315926803101304101C202DE01DE0AD4
:10073000B02B41015E08403E860001308700010871
:100740004001D60041015E083F3E8600013087002F
:100750004001560881000130D60056084101DE07ED
:100760005E084001D600D701D61BD7035708803A50
:10077000803C031DBE2B5608410142020318C12BC9
:10078000C22B992B4101DF01DF03E001E003E2010D
:1007900005306202031CCD2BCE2BCF2B072C620819
:1007A00090319020803168304001D600E430890BD0
:1007B000D72BD60BD72B000008309F31EF27803185
:1007C0009F31E8278031003A0319E72BE82BE02B13
:1007D0009F31A027803175084101CB007408CA0001
:1007E00004304B02B03003194A020318F82BF92BDE
:1007F000002C62084001D60056084101DF00072C9A
:1008000001304001D60056084101E207C82B5F0ABB
:1008100003190B2C0C2CB42C05304001D6005608C3
:100820004101E2000A306202031C172C182C192C1B
:10083000572C620890319020803168304001D600FA
:10084000E430890B212CD60B212C000008309F317D
:10085000EF2780319F31E8278031003A0319312C8E
:10086000322C2A2C9F31A027803175084101CD0000
:100870007408CC0004304D02B03003194C02031848
:10088000422C432C4B2C6208FB3E4001D6005608FC
:100890004101E000572C01304001D60056084101CB
:1008A000E2070A306202031C562C572C192C600AEE
:1008B00003195B2C5C2CB42C68080319602C612C88
:1008C000B42CE80105304001D6005608F40041017F
:1008D0005F089031F0208031C03E41016007400147
:1008E000D700570886000130870001084101DB006E
:1008F000DC01DB1BDC035B0A031D832C5C0A031990
:10090000822C832CB42CC8304001D0000030D100A0
:1009100094317724803141014108031D902C912CA2
:100920009C2C5C084001B10041015B084001B00013
:10093000963159268031B42C053042020318A12C7F
:10094000A22CB42C5B084001D60041014208403E75
:100950008600013087004001560881000130D60032
:1009600056084101C207B42C41015F0A031DB92C8E
:10097000BA2CAF29600A031DBE2CBF2CAF29E80199
:10098000E80AAF2980314328400131088039B60098
:100990003608BB003135B6003608C100B01FD12C77
:1009A000D22CD32C411441080319D72CD82CE72C76
:1009B000410A031DDC2CDD2CE52C0030B100003099
:1009C000B0000030AF000030AE00B017EF2C0030A8
:1009D000B1000030B0000030AF000030AE0035088C
:1009E0008039B6003608BB063535B6003608BC007F
:1009F000B41FFB2CFC2CFD2C3C143C080319012DCE
:100A0000022D112D3C0A031D062D072D0F2D003040
:100A1000B5000030B4000030B3000030B200B417AD
:100A2000192D0030B5000030B4000030B3000030A4
:100A3000B2003C0803191D2D1E2D232D4108031D56
:100A4000222D232D2C2D0030B1000030B0000030BD
:100A5000AF000030AE001A2F2E08B6003608F400A2
:100A6000340892317F22843175084001C700740830
:100A7000C6004608B600B701B801B9013908C00080
:100A80003808BF003708BE003608BD004708B6006A
:100A9000B701B801B9013908C5003808C4003708E2
:100AA000C3003608C2002F08B6003608F400330829
:100AB00092317F22843175084001C7007408C60056
:100AC0004608B600B701B801B9013608BD073708B6
:100AD000BE3D3808BF3D3908C03D4708B600B701E4
:100AE000B801B9013608C2073708C33D3808C43D0C
:100AF0003908C53D3008B6003608F4003208923196
:100B00007F22843175084001C7007408C60046087A
:100B1000B600B701B801B9013608BD073708BE3DB8
:100B20003808BF3D3908C03D4708B600B701B801D5
:100B3000B9013608C2073708C33D3808C43D390833
:100B4000C53D0830BD35BE0DBF0DC00D890BA22DB2
:100B50002F08B6003608F400320892317F22843123
:100B600075084001C7007408C6004608BD0747085D
:100B7000BE3D0030BF3DC03D2E08B6003608F40033
:100B8000330892317F22843175084001C700740810
:100B9000C6004608BD074708BE3D0030BF3DC03D0A
:100BA0000830BD35BE0DBF0DC00D890BD12D2E08EF
:100BB000B6003608F400320892317F22843175087D
:100BC0004001C7007408C6004608BD074708BE3D7F
:100BD0000030BF3DC03D2F08B6003608F400340891
:100BE00092317F22843175084001C7007408C60025
:100BF0004608C2074708C33D0030C43DC53D300824
:100C0000B6003608F400330892317F22843175082B
:100C10004001C7007408C6004608C2074708C33D24
:100C20000030C43DC53D3008B6003608F400340835
:100C300092317F22843175084001C7007408C600D4
:100C40004608B6004708B700B801B9010830B63504
:100C5000B70DB80DB90D890B272E3608C207370816
:100C6000C33D3808C43D3908C53D3D08B6003E08BF
:100C7000B7003F08B8004008B9001830B936B80CC2
:100C8000B70CB60C890B3E2E3608C2073708C33D99
:100C90003808C43D3908C53D0830BD35BE0DBF0D0F
:100CA000C00D890B4D2E41083C07B600B701B70DAA
:100CB0003608823EC600FF30373DC700762E013031
:100CC000C235C30DC40DC50D890B602EC01F692E22
:100CD0006A2E6B2E42140130BD35BE0DBF0DC00D06
:100CE000890B6C2EFF30C607FF30C73DC41F792E1D
:100CF0007A2E5F2EBC01C01F7E2E7F2E9B2EFF30D2
:100D00003D05B600FF303E05B700FF303F05B80097
:100D10007F304005B9003908380437043604031918
:100D2000922E932E962EBC01BC0A9B2E421C992E0D
:100D30009A2E9B2E932E3C0803199F2EA02EC82E70
:100D40000130C2070030C33D0030C43D0030C53D16
:100D5000451CAB2EAC2EC82E4208B6004308B70087
:100D60004408B8004508B9000130BA00B937B80CDA
:100D7000B70CB60CBA0BB62E3908C5003808C4003B
:100D80003708C3003608C2000130C6070030C73D2F
:100D90004708803AB60080303602031DD12EFF305E
:100DA0004602031CD42ED52EDF2E7F304001C50015
:100DB0008030C4000030C3000030C2000E2F40015C
:100DC0004708803AB60080303602031DE92E013014
:100DD00046020318EC2EED2EF82E00304001C5001F
:100DE0000030C4000030C3000030C200BB010E2F31
:100DF00040014608B6003608C100FF30C205FF308A
:100E0000C3057F30C4050030C505411C082F092FDC
:100E10000A2FC4174136B6003608C5003B08B60095
:100E20003608C5044508B1004408B0004308AF00C7
:100E30004208AE0008004001A80028080319212F2D
:100E4000222F362FA31F252F262F362F2009AA0049
:100E50002109AB002209AC002309AD00AA0A03193D
:100E6000AB0A0319AC0A0319AD0A3E2F2308AD00E3
:100E70002208AC002108AB002008AA0023082204A5
:100E800021042004031D452F462F4F2F0030A300BF
:100E90000030A2000030A1000030A000C72F963023
:100EA000A4002408A9005F2F0130A4002408A9078A
:100EB0000130AD36AC0CAB0CAA0C890B592FFE30AF
:100EC0002D05031D642F652F542F792F0130A400A9
:100ED0002408A9070130AA070030AB3D0030AC3D23
:100EE0000030AD3D0130AD36AC0CAB0CAA0C890B1B
:100EF000732FFF302D05031D7E2F7F2F662F892F27
:100F00000130A9020130AA35AB0DAC0DAD0D890B36
:100F1000832FAC1B8C2F8D2F932F023029020318A7
:100F2000922F932F802F2918962F972F9F2FFF30C6
:100F3000AA05FF30AB057F30AC05FF30AD050310CF
:100F4000A90C2908A400A501A601A7011830A43501
:100F5000A50DA60DA70D890BA72F2408AA04250807
:100F6000AB042608AC042708AD0428080319B92FE0
:100F7000BA2FBF2FA31FBD2FBE2FBF2FAD172D0818
:100F8000A3002C08A2002B08A1002A08A00008003A
:100F90000F308600263087000130C03F10308600B9
:100FA000263087000230810011308600263087000D
:100FB0000330810012308600263087000130810026
:100FC0001330860026308700053081004001A001E3
:100FD00020080F3E860087012630873D01088831B2
:100FE000032087310130F60076084001A007053064
:100FF0002002031CFC2FFD2FE82F0800080008002A
:10100000FF34FF340134F500410165080319092854
:101010000A2804284E01191B0E280F2813287508CA
:1010200054019A002B2819137508F4007908A03E82
:10103000860001308700740881000130F4007408D4
:10104000F90720307902031C262827282828F901CF
:1010500001304101E5024E0119170800031040015B
:10106000220D230DA4002408F5007508031D39285E
:101070003A2843280030A3000030A2000030A1002D
:101080000030A000A2282008A4002108A500220802
:10109000A6002308A7001F30A736A60CA50CA40C99
:1010A000890B4C282408A8002808F400A217FF3058
:1010B000A005FF30A105FF30A2050030A305963042
:1010C000F502F51F642865287D287508803A973E4B
:1010D00003186B286C286D283A280130A336A20C1F
:1010E000A10CA00C890B6E280130A4002408F50780
:1010F000031D7B287C286D28922820307502031C54
:10110000822883288D283A280130A035A10DA20D10
:10111000A30D890B85280130F5027508031D912860
:10112000922884287408031996289728A228A009D1
:10113000A109A209A309A00A0319A10A0319A20A75
:101140000319A30A080054011908F0007008F300FD
:1011500041013203031DAD28AE28E8283108031DE4
:10116000B228B328C028B0017308F000F10170085C
:10117000AE007108AF000130F0007008B100E22845
:1011800030080F3EF000F1012630F13D7008860076
:1011900071088700730881000130F0007008B00703
:1011A0003008F100F2012F087206031DD9282E081D
:1011B0007106031DDC28DD28E228B2010130F000B1
:1011C0007008C3007308F00070084101B300EB29F8
:1011D0003408283E8400A0300318013E8500000832
:1011E0007306031DF428F52805290130F000700866
:1011F000B40703303406031DFE28FF2806290130FA
:10120000F0007008B200B101B001B40125307306DE
:10121000031D0B290C29302925303306031D112904
:10122000122918290130F00070084001DD00EB2977
:1012300040015D08031D1D291E2923290130F000EE
:101240007008DD00E228DD0141013D08031929296C
:101250002A29E228BD010130F0007008BE00E22812
:1012600040015D08031D35293629922941013B08BB
:10127000203E8400A0300318013E8500000873065C
:10128000031D4329442954290130F0007008BB078D
:1012900004303B06031D4D294E295529BB01013061
:1012A000F0007008C6005529BB013C08183E8400B8
:1012B000A0300318013E850000087306031D612954
:1012C000622972290130F0007008BC0703303C0627
:1012D000031D6B296C297329BC010130F0007008D3
:1012E000C5007329BC013A081C3E8400A0300318D5
:1012F000013E850000087306031D7F29802990297F
:101300000130F0007008BA0704303A06031D89293D
:101310008A29E228BA010130F0007008BF00E228F3
:10132000BA01E22841013908073E8400A0300318C1
:10133000013E850000087306031D9F29A029B029DE
:101340000130F0007008B90706303906031DA929DD
:10135000AA29B129B9010130F0007008C700B129EC
:10136000B9013808003E8400A0300318013E850012
:1013700000087306031DBD29BE29CE290130F000E7
:101380007008B80707303806031DC729C829CF29B8
:10139000B8010130F0007008C400CF29B801370847
:1013A0001B3E840098300318013E85000008730638
:1013B000031DDB29DC29E9290130F0007008B7079B
:1013C0000A303706031DE529E629E228B701C401E2
:1013D000E228B701E2280800400123088039A8006C
:1013E0002808B0002335A8002808B200A21FF92958
:1013F000FA29FB29321432080319FF29002A102A7E
:10140000320A031D042A052A0D2A0030A3000030E9
:10141000A2000030A1000030A000A217A301182AEA
:101420000030A3000030A2000030A1000030A00076
:1014300027088039A8002808B100310830060319B0
:10144000222A232A242A30172735A8002808B10089
:10145000A61F2B2A2C2A2D2A311431080319312AD0
:10146000322A422A310A031D362A372A3F2A0030FF
:10147000A7000030A6000030A5000030A400A61789
:10148000A7014A2A0030A7000030A6000030A500BE
:101490000030A4003208310203184F2A502A942A3F
:1014A000301F532A542A582A8030A8002808B00632
:1014B0003208A8002808B3003108A8002808B200A4
:1014C0003308A8002808B1002008A8002808B300A5
:1014D0002408A8002808A0003308A8002808A400B1
:1014E0002108A8002808B3002508A8002808A100A2
:1014F0003308A8002808A5002208A8002808B3007F
:101500002608A8002808A2003308A8002808A6007A
:101510002308A8002808B3002708A8002808A3006B
:101520003308A8002808A700B3013108A800A901C2
:101530002908AB0032082802AA00031CAB032B08C1
:10154000803AAC0080302C02031DA82A1A302A02EF
:10155000031CAB2AAC2AE42A4001230822042104FC
:101560002004031DB42AB62A0130B72A0030A8008F
:101570002808B3000030A3000030A2000030A10012
:101580000030A0003108A8002808B200EB2A331C64
:10159000CA2ACB2AD12A33360138A8002808B3003A
:1015A000D32A0310B30C201CD62AD72AD82AB31763
:1015B0000130A800A337A20CA10CA00CA80BDA2ABA
:1015C0000130A8002808B207400131083202031C8C
:1015D000EA2AEB2AC72A301BEE2AEF2A272B3208E9
:1015E000031DF32AF42AFD2A0030A3000030A200D4
:1015F0000030A1000030A000232C2408A0072508FB
:10160000A13D2608A23D2708A33D231C082B092B3A
:10161000B32B331C0C2B0D2B132B33360138A800A6
:101620002808B300152B0310B30C201C182B192B02
:101630001A2BB3170130A800A337A20CA10CA00CE1
:10164000A80B1C2B0130A8002808B207B32B2308D5
:10165000803AA8002708803A2802031D392B260863
:101660002202031D392B25082102031D392B2408D2
:10167000200203183C2B3D2B752BFF30A800FF30B8
:10168000A900FF30AA00FF30AB0020082402AC0004
:101690002108253BAD002208263BAE002308273B4E
:1016A000AF002C08A8072D08A93D2E08AA3D2F0839
:1016B000AB3D2B08A3002A08A2002908A100280896
:1016C000A0008030A8002808B006B309B30A330888
:1016D000031D6B2B6C2B7D2B0130A0070030A13D2F
:1016E0000030A23D0030A33D7D2B2408A002250838
:1016F000A13B2608A23B2708A33B23082204210480
:101700002004031D842B852BAF2B3308031D892B4D
:101710008A2BAF2B0030A3000030A2000030A100C4
:101720000030A000232C0130A035A10DA20DA30D87
:10173000890B942BB31F9D2B9E2B9F2B2014331CA6
:10174000A22BA32BA62B0314B30DA82B0310B30DB0
:1017500032080319AC2BAD2BAF2B0130B202A21F04
:10176000B22BB32B932BB101B31FB72BB82BC62BC6
:1017700033087F390319BD2BBE2BC12BB101B10A30
:10178000C62B201CC42BC52BC62BBE2B310803191E
:10179000CA2BCB2BF82B0130A0070030A13D003025
:1017A000A23D0030A33D231CD62BD72BF82B2008BD
:1017B000A8002108A9002208AA002308AB000130D4
:1017C000AC00AB37AA0CA90CA80CAC0BE12B2B0876
:1017D000A3002A08A2002908A1002808A000320AB4
:1017E0000319F32BF42BF82B0130A8002808B207BB
:1017F000320A0319FC2BFD2B022C3208031D012C8D
:10180000022C102C0030A3000030A2000030A100F8
:101810000030A0003208031D0E2C0F2C102CB0013C
:10182000321C132C142C162CA2171A2C7F30A80053
:101830002808A2053236A8002808A300B01F212CD2
:10184000222C232CA31708004501CE01CF01FF3025
:101850004001AD000530AE002E08F40045014E08F1
:101860009031F0208C3140012C07AF0045014F082A
:1018700040012F07B00030088600013087002D0896
:1018800081000130AD002D084501CF0705304F0222
:10189000031C4B2C4C2C272C01304001AD002D0893
:1018A0004501CE0705304E02031C572C582C262C20
:1018B000D501D601D701D8010630D3000030D400BD
:1018C0004501DD01DE01CF2E4501C801CA01CB0172
:1018D000B32C45014A35A03E8600023087005E08E1
:1018E0004001A10045015D084001A0000930A200AF
:1018F0000030A3009131FC218C31400120082807E1
:10190000AD002108293DAE002D0884002E08850079
:1019100007310008AF00B001AF1BB003403F2F02FA
:10192000A400413F303BA5009131A0218C31400102
:101930002508803AB10045015408803A400131023F
:10194000031DA62C45015308400124020318A92CAD
:10195000AA2CAE2C4501C801C80AC52C013045018E
:10196000CA070030CB3D4B08803A4001AD0045012D
:101970005808803A40012D02031DC12C450157082B
:101980004A02031CC42CC52C692C45014808031DC0
:10199000CA2CCB2C982D5E084001A10045015D08A2
:1019A0004001A0000930A2000030A3009131FC21C9
:1019B0008C31400120082807AD002108293DAE00E8
:1019C0002D0886002E08870047310108AF00B001BE
:1019D000AF1BB00345015735A03E8600023087009B
:1019E00040012F08C03F3008C13F45015808DA00C8
:1019F0005708D9005A08803A4001AD0080302D02C6
:101A0000031D052D0130450159020318082D092D2C
:101A10000A2D932D45015935FE3EA03E8600023029
:101A20008700403F4001AD00413FAE0045015E08E8
:101A30004001A10045015D084001A0000930A2005D
:101A40000030A3009131FC218C314001200828078F
:101A5000AF002108293DB0002F088600300887001C
:101A600047310108B100B201B11BB2033208803A1C
:101A7000B3002E08803A3302031D402D2D08310299
:101A80000318432D442D932D45015935FE3EA03EAC
:101A90008600023087005935A03E84000230850060
:101AA000403F803F413F813F5E084001A10045012A
:101AB0005D084001A0000930A2000030A300913170
:101AC000FC218C31400120082807AD002108293D68
:101AD000AE002D0886002E08870047310108AF00B0
:101AE000B001AF1BB00345015935FE3EA03E860054
:101AF0000230870040012F08C03F3008C13FFF304F
:101B00004501D907FF30DA3D5A08803A4001AD005F
:101B100080302D02031D8F2D01304501590203181D
:101B2000922D932D0A2D01304501D7070030D83D65
:101B3000C901CC01CD01E62D45014C35B43E8600EE
:101B4000023087005E084001A10045015D084001A8
:101B5000A0000930A2000030A3009131FC218C319B
:101B6000400120082807AD002108293DAE002D08BE
:101B700084002E08850006310008AF00B001AF1BBD
:101B8000B003403F2F02A400413F303BA5009131FC
:101B9000A0218C3140012508803AB100450154084C
:101BA000803A40013102031DD92D450153084001FF
:101BB00024020318DC2DDD2DE12D4501C901C90AE0
:101BC000F82D01304501CC070030CD3D4D08803A5D
:101BD0004001AD0045015608803A40012D02031D29
:101BE000F42D450155084C02031CF72DF82D9C2DB2
:101BF00045014908031DFD2DFE2DCB2E5E08400139
:101C0000A10045015D084001A0000930A20000309C
:101C1000A3009131FC218C31400120082807AD0040
:101C20002108293DAE002D0886002E088700463188
:101C30000108AF00B001AF1BB00345015535B43EFC
:101C400086000230870040012F08C03F3008C13FA6
:101C500045015608DC005508DB005C08803A40016D
:101C6000AD0080302D02031D382E013045015B028E
:101C700003183B2E3C2E3D2EC62E45015B35FE3E05
:101C8000B43E860002308700403F4001AD00413F36
:101C9000AE0045015E084001A10045015D0840011C
:101CA000A0000930A2000030A3009131FC218C314A
:101CB000400120082807AF002108293DB0002F0867
:101CC00086003008870046310108B100B201B11B1F
:101CD000B2033208803AB3002E08803A3302031D63
:101CE000732E2D0831020318762E772EC62E45014D
:101CF0005B35FE3EB43E8600023087005B35B43E65
:101D0000840002308500403F803F413F813F5E08B4
:101D10004001A10045015D084001A0000930A2007A
:101D20000030A3009131FC218C31400120082807AC
:101D3000AD002108293DAE002D0886002E08870041
:101D400046310108AF00B001AF1BB00345015B3560
:101D5000FE3EB43E86000230870040012F08C03F9F
:101D60003008C13FFF304501DB07FF30DC3D5C0838
:101D7000803A4001AD0080302D02031DC22E01309B
:101D800045015B020318C52EC62E3D2E01304501CC
:101D9000D5070030D63D0130DD070030DE3D5E085E
:101DA000803A4001AD002B08803A2D02031DDB2E46
:101DB0002A0845015D02031CDE2EDF2E642C013053
:101DC0004501D3070030D43D5808803A4001AD00AA
:101DD00080302D02031DEF2E0630450157020318F7
:101DE000F22EF32E602C45015608803A4001AD00DA
:101DF00080302D02031DFF2E0630450155020318C9
:101E0000022F032F602CFF304501D307FF30D43D54
:101E1000D201F22F4501D001562F45015035B43E75
:101E200086000230870052084001AD00AE012D0847
:101E3000A0002E08A1000930A2000030A3009131BB
:101E4000FC218C31400120082807AF002108293DE2
:101E5000B0002F0884003008850006310008B1006A
:101E6000B201B11BB203403F3102A400413F323BFB
:101E7000A5009131A0218C3140012508803AB300A2
:101E800045015408803A40013302031D4B2F4501A0
:101E900053084001240203184E2F4F2F502F612F5B
:101EA00001304001AD002D084501D0075608803AA9
:101EB000803C031D5D2F55085002031C602F612FCD
:101EC0000D2F4501D101AD2F45015135A03E8600B2
:101ED0000230870052084001AD00AE012D08A0007D
:101EE0002E08A1000930A2000030A3009131FC218E
:101EF0008C31400120082807AF002108293DB0009F
:101F00002F0884003008850007310008B100B201B5
:101F1000B11BB203403F3102A400413F323BA50058
:101F20009131A0218C3140012508803AB300450150
:101F30005408803A40013302031DA22F4501530883
:101F4000400124020318A52FA62FA72FB82F013078
:101F50004001AD002D084501D1075808803A803C6A
:101F6000031DB42F57085102031CB72FB82F642F3D
:101F7000450152084001AD00AE012D08A0002E0819
:101F8000A1000930A2000030A3009131FC218C3166
:101F9000400120082807AF002108293DB0002F0884
:101FA00086003008870048310108B1000530B200D2
:101FB0003208F400450151089031F0208C31400185
:101FC0002C07B3004501500840013307B400340822
:101FD000860001308700310881000130AD002D08F6
:101FE0004501D20740012B08803A803C031DFB2F9E
:101FF0002A0845015202031CFE2FFF2F0A2F08005A
:1020000044010E14080040011A109A148D19092871
:102010000A2806289A100800603051018D008F01AF
:102020009101063093009001920108004F01960142
:102030009701980199019A019B019C019D0108005B
:10204000750850019B0074089A001E171E140000AA
:10205000000050011C0808006400800101310130BB
:10206000FE020030FF3B7F087E04031D2D28003454
:102070000530450190008F0191019B308D008C014E
:102080004E019010E03045018E00080001304501FE
:102090009C009B019D011E30990098014E019012F9
:1020A000F03045019A00080042015708580403190E
:1020B0005A285B28602858088A0057080A0090317F
:1020C0007E0155120800420155085604031969287B
:1020D0006A286F2856088A0055080A0090317E0148
:1020E000D5120800420153085404031978287928AE
:1020F0007E2854088A0053080A0090317E01551347
:1021000008004201510852040319872888288D28A5
:1021100052088A0051080A0090317E01D513080048
:10212000F5000F30F4007408F505E130F400740890
:10213000400198057535F4007408980408004101C1
:10214000C601263088310320903152308831032077
:1021500090310A3088310320903108000A307C0128
:102160009B0012309C009D019E019F010230A00047
:10217000A101A201A30186309A00080005304501A3
:1021800096001130950001309700BB30930092010A
:102190004E019011A03045019400080044010E1D2D
:1021A000D228D328DA280E1071088D0070088C0010
:1021B0000E14DE2871088D0070088C0008007C0168
:1021C00091010E309200930110309400950102307D
:1021D0009600970120309800990183309000080004
:1021E0004001A100A001211CF628F728FB28740853
:1021F000F5007508A0070310F40D0310A10C2108C9
:10220000031D03290429F328200808004E0110109B
:1022100041016408F1006308F0009031CE20913153
:102220004201450846040319162917291C294608A6
:102230008A0045080A00913108004001A0012008E9
:10224000133E8400A0300318013E85000008883149
:10225000032091310130F60076084001A0070530D7
:102260002002031C342935291F29080044010E1DB2
:102270003A293B2946290E1040012A0844018D00C5
:102280004001290844018C000E144E2940012A08FF
:1022900044018D004001290844018C0008005401CC
:1022A0001908F0007808203E860002308700700888
:1022B00081000130F0007008F80720307802031C1C
:1022C000622963296429F8010130F0007008410196
:1022D000C907080041018C018D018E018F01920117
:1022E000930198019A019F010A3042018C008D01EF
:1022F0008E018F0190019201930194019501960145
:10230000970198018430910008004101C601400105
:10231000A00120082B3E8400A0300318013E850058
:1023200000088831032091310130F6007608400121
:10233000A00703302002031C9E299F298929080039
:1023400040012508803AA60080302602031DAA29F4
:10235000013024020318AD29AE29BB29400124090C
:10236000A6002509A700A60A0319A70A2608A400A3
:102370002708A500BB29080000308B1B0130400155
:10238000A000750850019B0074089A0076089C0014
:102390001E171E158B1355309F00AA309F009E14E8
:1023A0009E18D329D429D0291E114001200C031CCA
:1023B0008B1303188B17080044018F019001043020
:1023C0009100C3308D0074308C004E011010440118
:1023D0000D084101E40044010C084101E3004E01F5
:1023E0001A14FE30F4000730F5009F31DC279131DC
:1023F000113044018E000800F401F5014001201C59
:10240000022A032A072A2208F4072308F53D01308F
:10241000A235A30D890B082A0130A136A00C890B27
:102420000D2A20082104031D162A172AFE297508E3
:10243000A1007408A000080080304001CB064F08BE
:10244000A3004E08A2004D08A1004C08A0004B08B4
:10245000A7004A08A6004908A5004808A400893139
:10246000EC21923140012308CB002208CA00210848
:10247000C9002008C80008007E01551E402A412AD4
:10248000442A9031542092317E01D51E482A492A8F
:102490004C2A9031632092317E01551F502A512AD7
:1024A000542A9031722092317E01D51F582A592A20
:1024B0005C2A9031812092310800903116209231AF
:1024C0009531F625923190310C2092319031462091
:1024D00092319031DF20923191316A2192319031E5
:1024E000AE2092319031BE2092319031382092311D
:1024F0009131DC2192319331402392310800400127
:10250000A600A201A3017408A000A1012008A40054
:102510002108A500261C8D2A8E2A922A2408A207AB
:102520002508A33D0130A435A50D890B932A03107E
:10253000A60C2608031D9D2A9E2A8A2A2308F50038
:102540002208F40008002030410165020318A92A7E
:10255000AA2AC52A40015E08A03E860001308700F5
:10256000010854019A000130F00070084001DE07B4
:1025700020305E02031CBD2ABE2ABF2ADE010130C4
:10258000F00070084101E507C72A4E011913080041
:102590004101C5014001A60126080D3E8400A0307E
:1025A0000318013E85000008883103209231013074
:1025B0004001A3002308A60706302602031CE12AD7
:1025C000E22ACC2AA501F82A2108A4002008A300A9
:1025D00025082307840024080318240A850000081E
:1025E00088310320923101304001A3002308A50760
:1025F00022082502031CFD2AFE2AE42A0A3088311B
:102600000320923108007808203E860001308700C0
:10261000810154011D1D0D2B0E2B1A2B7808203E15
:10262000860001308700811442014C088A004B0863
:102630000A00933154019D1C1E2B1F2B2B2B780855
:10264000203E860001308700011542014A088A00B9
:1026500049080A0093317808203E8600013087003F
:1026600001080319342B352B3C2B420148088A0002
:1026700047080A0093313F2B91314F2193310800D5
:102680004E0199130330F4001330F5009F31B82741
:1026900093314E011913A330F4001230F5009F312D
:1026A000BE279331083054019F0090309D002430A4
:1026B0009E0044309B009C017C30F4001F30F500EC
:1026C0009F31AC2793318730F4001F30F5009F31E4
:1026D000B22793318330F4001F30F5009F31A627D5
:1026E00093314101C801F9014001DE012030F600BB
:1026F00076084101E500F801F701C9014E0199177B
:1027000008004001AE01AF01B52B40012F08A10028
:102710002E08A0000930A2000030A3009131FC2156
:102720009331400120082407AA002108253DAB0071
:102730002A0886002B08870048310108AC00AD014B
:10274000AC1BAD0327082D06031DA82B26082C065D
:10275000031DAB2BAC2BB12B2F08A5002E08A4001A
:10276000C82B0130AE070030AF3D2F08803AAA00D9
:102770002908803A2A02031DBF2B28082E02031CB9
:10278000C22BC32B852BFF304001A400FF30A500D6
:10279000080040018E1ECD2BCE2BDE2B0E1ED12B22
:1027A000D22BD82B01304101AA070030AB3DE32BDF
:1027B000FF304101AA07FF30AB3DE32B0E1EE12B9A
:1027C000E22BD22BD82B2608013EF0000030273D0B
:1027D000F1007108803AF2002B08803A7202031D62
:1027E000F32B2A0870020318F62BF72BFE2B40015F
:1027F0001A109A144101A201A3011F2C41012608BD
:10280000FF3EF000FF30273DF1002B08803AF20038
:102810007108803A7202031D0F2C70082A020318F7
:10282000122C132C172C40019A101A14FA2B400169
:102830001A109A1001304101A2000030A3000800D4
:1028400040018E1F242C252C352C0E1F282C292CC2
:102850002F2C01304101AC070030AD3D3A2CFF3048
:102860004101AC07FF30AD3D3A2C0E1F382C392CFE
:10287000292C2F2C2808013EF0000030293DF100C2
:102880007108803AF2002D08803A7202031D4A2C2A
:102890002C08700203184D2C4E2C552C4001181397
:1028A00098174101A401A501762C41012808FF3E9B
:1028B000F000FF30293DF1002D08803AF200710848
:1028C000803A7202031D662C70082C020318692CD2
:1028D0006A2C6E2C400198131817512C40011813C4
:1028E000981301304101A4000030A50008004130D8
:1028F0004001B1007830B0000030AF000030AE00D1
:102900005008A0005108A100890D893B8909A20047
:10291000A300013087311B27943140012308B50003
:102920002208B4002108B3002008B2008431C42476
:10293000943140013108CB003008CA002F08C9008B
:102940002E08C8004730CF007F30CE00FF30CD00CA
:102950000030CC0092311C22943140014B08D5004C
:102960004A08D4004908D3004808D2005508A300FB
:102970005408A2005308A1005208A00088312E205C
:10298000943140012108AA002008A9009131362184
:102990009431F730F600760840019405903100201C
:1029A000943108004001A501A11FD72CD82CDF2CA1
:1029B000A009A109A00A0319A10AA501A50AA31F3C
:1029C000E22CE32CEC2CA209A309A20A0319A30A06
:1029D0000130F4007408A506A601A701200821040F
:1029E0000319F32CF42C232DA401A40A002D01308B
:1029F000A035A10D890BF82C0130F4007408A40750
:102A0000A11F032D042DF72C0130A635A70D890B2E
:102A1000052D21082302031D0F2D20082202031C6F
:102A2000122D132D182D2008A2022108A33B2614D5
:102A30000130A136A00C890B192D0130A402031D11
:102A4000222D232D042D25080319272D282D2D2D6A
:102A5000A609A709A60A0319A70A2708A10026089C
:102A6000A0000800F51F352D362D382DF401F50195
:102A70007508803A4001A00080302002031D422DDD
:102A800059307402031C452D462D4A2D5830F40050
:102A90000030F50075084101A9007408A800740809
:102AA000013E4001A0000030753DA1002108803AA0
:102AB000A20041012D08803A40012202031D642D2D
:102AC00041012C08400120020318672D682D6F2D4D
:102AD0004001181398174101A401A501932D740812
:102AE000FF3E4001A000FF30753DA10041012D08CF
:102AF000803A4001A2002108803A2202031D832D62
:102B0000200841012C020318862D872D8B2D4001B2
:102B1000981318176B2D40011813981301304101B9
:102B2000A4000030A5000800F51F972D982D9A2DC0
:102B3000F401F5017508803A4001A00080302002C0
:102B4000031DA42D59307402031CA72DA82DAC2DF4
:102B50005830F4000030F50075084101A7007408F2
:102B6000A6007408013E4001A0000030753DA100A0
:102B70002108803AA20041012B08803A400122023C
:102B8000031DC62D41012A08400120020318C92D4A
:102B9000CA2DD12D40011A109A144101A201A3019E
:102BA000F52D7408FF3E4001A000FF30753DA100E7
:102BB00041012B08803A4001A2002108803A2202FC
:102BC000031DE52D200841012A020318E82DE92DF7
:102BD000ED2D40019A101A14CD2D40011A109A10B3
:102BE00001304101A2000030A300080040019C0117
:102BF000980199019A010830960001309200ED3059
:102C00009300F03094000C307E01CE00D130C30030
:102C10002030B800E5010C30C400B901CF01E60155
:102C2000BA01C501D001FF30BB00FF30C600FF3044
:102C3000D1003F30BC003F30C700FF30D2005512FA
:102C4000D5125513D5135416D4165417D41753163A
:102C5000D3165317D3177E30F4001F30F5009F3181
:102C6000C42795317F30F4001F30F5009F31CA270B
:102C700095310330F4000030F5009F31D0279531B5
:102C8000FF30F4000730F5009F31D62795314E0113
:102C9000161602307E01A3007D01BB0102307E01C9
:102CA000950025309C000130A2000D307D01CD0043
:102CB00008000F304001A4002730A5003108A7000C
:102CC0003008A600410121084001A9004101200867
:102CD0004001A80093318123963140012508BC00B2
:102CE0002408BB003C08A1003B08A0000930A2005A
:102CF0000030A3009131FC21963115304001B20023
:102D00002730B3002008320786002108333D8700B2
:102D10000108B400B501B41BB5032730B600340870
:102D20003602B70035090318890AB8003C08A1002B
:102D30003B08A0000930A2000030A3009131FC2123
:102D4000963116304001B2002730B3002008320718
:102D500086002108333D87000108B400B501B41B8B
:102D6000B5033408CF3EB900FF30353DBA0038080E
:102D7000F5003708F40095313225963140013A08C4
:102D8000F5003908F4009531942596314101C101CF
:102D9000C10A08000A304001A0000030A1002B0841
:102DA000A3002A08A2009431D224963140012108C0
:102DB000BA002008B900C101C201C301C401EC2F4F
:102DC0004001BF01C00140014108280786004208B8
:102DD000293D87000108AE004408A1004308A00077
:102DE0000930A2000030A3009131FC21963140014E
:102DF00020082C07AF0021082D3DB0003F082F0709
:102E0000B1004008303DB20031088600320887002A
:102E10002E0881000130C1070030C23D0130BF07DC
:102E20000030C03D4008803AAE0080302E02031DC5
:102E30001B2F06303F02031C1E2F1F2FE32E4001C5
:102E40004108280786004208293D87000108AE0096
:102E5000AF012E08BB002F08BC000130C1070030B5
:102E6000C23D4108280786004208293D8700010825
:102E7000AE00AF012E08BD002F08BE000130C10713
:102E80000030C23D0130C1070030C23D4108280773
:102E900086004208293D87000108AE00AF012E08D8
:102EA000B3002F08B4000130C1070030C23D3C0818
:102EB000803AAE0080302E02031D602F80303B022E
:102EC0000318632F642F6A2F40013C08B6003B08AB
:102ED000B500712F40013B08013EB500FF303C3D7D
:102EE000B6004408A1004308A0000930A200003049
:102EF000A3009131FC219631400120082C07AE003F
:102F000021082D3DAF002E08063EB00000302F3DB9
:102F1000B1003008860031088700350881003E087E
:102F2000803AAE0080302E02031D982F80303D0283
:102F300003189B2F9C2FA22F40013E08B8003D088C
:102F4000B700A92F40013D08013EB700FF303E3DCC
:102F5000B8004408A1004308A0000930A2000030D6
:102F6000A3009131FC219631400120082C07AE00CE
:102F700021082D3DAF002E08073EB00000302F3D48
:102F8000B100300886003108870037088100330817
:102F90007F39AE004408A1004308A0000930A20018
:102FA0000030A3009131FC219631400120082C070C
:102FB000AF0021082D3DB0002F08083EB1000030C1
:102FC000303DB20031088600320887002E088100AB
:102FD0000130C3070030C43D4408803AAE003A08CF
:102FE000803A2E02031DF62F39084302031CF92FE5
:102FF000FA2FE02E40013A08A9003908A80008007D
:10300000313432343334343435343634373438347C
:103010003934303461346234633464346534663452
:10302000533454345234453441344D345F344F3486
:10303000503445344E3444344934533443344F349B
:0A3040004E344E344534433454340A
:103EF800080008000800080044010E10080091316D
:103F08004F219F31080054011D121D160800F400AE
:103F18007408450193000800F9309F31E2279F316A
:103F28000800B4309F31E2279F3108009F31802775
:103F38009F3140019415080041011E08F5001D0835
:103F4800F400080075084201C8007408C70008009A
:103F580075084201CC007408CB00080075084201BE
:103F6800CA007408C900080075084201CE00740828
:103F7800CD00080075084201D0007408CF00080081
:103F880075084201D8007408D70008007508420176
:103F9800D6007408D500080075084201D4007408DA
:103FA800D300080075084201D2007408D100080047
:103FB80075084201C6007408C5000800F5007508B8
:103FC8009F318B279F31080003104201111C0314F5
:103FD8000030093D0800F400740841019F004201C7
:103FE8009117111408004001181398170D19FD2F87
:103FF800FE2FFA2F9813080043344F344E344E34B2
:104008004534433454345234453442344F344F34B5
:104018005434493441342C34463446342C340A342C
:104028002D342D342D340A3441344F344B340A3472
:104038004534723472340A3443344D3444343E3493
:1040480052342C3431340A340134023403342434E5
:1040580024342434573456340B3402340A340734A5
:0440680006340434E2
:020000040001F9
:0A000E00EC3FFF3F9F3FFF3FFF3F25
:00000001FF
